:10047300C290C291C292E4F508AC08EC12000D8F51
:10048300108E0F8D0E8C0D7F007E007D007C401240
:100493000849120041E4F50CF50DF50EFBFD120AB7
:1004A30007120A810508C3E5086480948840CAE4FA
:1004B300F508AC08EC12000D8F108E0F8D0E8C0D0D
:1004C3007F007E007D007C40120849120041AD0789
:1004D300E4F50CF50DF50EFBFF120A07120A810570
:1004E30008C3E5086480948840C8E4F508AC08ECC8
:1004F30012000D8F108E0F8D0E8C0D7F007E007DF0
:10050300007C40120849120041AB07E4F50CF50DDD
:10051300F50EFDFF120A07120A810508C3E50864F8
:1005230080948840C8E4F508AC08EC12000D8F10E5
:100533008E0F8D0E8C0D7F007E007D007C40120897
:10054300491209FA120A810508C3E50864809488F0
:1005530040D6E4F508AC08EC12000D8F108E0F8D19
:100563000E8C0D7F007E007D007C40120849120036
:10057300418F0DE4F50C120A02120A810508C3E546
:10058300086480948840CEE4F508AC08EC12000DB2
:100593008F108E0F8D0E8C0D7F007E007D007C40B2
:1005A3001208491200418F0EE4F50CF50DFBFDFF17
:1005B300120A07120A810508C3E50864809488407B
:1005C300C9750806AC08EC12000D8F108E0F8D0E46
:1005D3008C0D7F007E007D007C4012084912004193
:1005E3008F0EE4F50CF50DFBFDFF120A07120A81CD
:1005F3001508C3E5086480948050C9750807AC08E2
:10060300EC12000D8F108E0F8D0E8C0D7F007E006F
:100613007D007C401208491200418F0DE4F50C1255
:100623000A02120A811508C3E5086480948050CE3B
:10063300750807AC08EC12000D8F108E0F8D0E8C11
:100643000D7F007E007D007C401208491209FA12DA
:100653000A811508C3E5086480948050D67508079D
:10066300AC08EC12000D8F108E0F8D0E8C0D7F00D9
:100673007E007D007C40120849120041AB07E4F57F
:100683000CF50DF50EFDFF120A07120A811508C3BA
:10069300E5086480948050C8750807AC08EC120024
:1006A3000D8F108E0F8D0E8C0D7F007E007D007CD4
:1006B30040120849120041AD07E4F50CF50DF50EA3
:1006C300FBFF120A07120A811508C3E50864809428
:1006D3008050C8750807C3E50864809480500302FE
:1006E3000479AC08EC12000D8F108E0F8D0E8C0D5B
:1006F3007F007E007D007C40120849120041E4F532
:100703000CF50DF50EFBFD120A07120A8115088080
:01071300C520
:040AA500A2E0920039
:0B0AA900A2009292D290C292C2902252
:0D09FA001200418F0CE4F50DF50EFBFDFF22
:100A0700E4FEE50EA806088002C313D8FC120AA567
:100A17000EBE08EEE4FEE50DA806088002C313D853
:100A2700FC120AA50EBE08EEE4FEE50CA806088037
:100A370002C313D8FC120AA50EBE08EEE4FEEBA80B
:100A470006088002C313D8FC120AA50EBE08EFE4FD
:100A5700FEEDA806088002C313D8FC120AA50EBE35
:100A670008EFE4FEEFA806088002C313D8FC120AB9
:090A7700A50EBE08EFD291C29158
:010A80002253
:040A81007F057E006F
:100A8500E4FDFCC3ED9FEC9E5015E4FBFA0BBB00A7
:0F0A9500010ABA04F8BBFBF50DBD00010C80E4AB
:010AA400222F
:1000030075F020800E75F010800575F0087D007E78
:10001300007F003392D530D503120445EC334010F2
:10002300EF33FFEE33FEED33FDEC33FCD5F0ED2281
:0E003300E5F0247EA2D513CC92E7CDCEFF22BD
:10004100EDD2E7CD33EC3392D524814006E4FFFEB7
:10005100FDFC22FCE4CFCECDCC24E0501174FF8016
:10006100EDC3CC13CCCD13CDCE13CECF13CF0470B3
:07007100F030D5DE0204456A
:100849008F0C8E0B8D0A8C09E4FFFE7D807C3FABFB
:100859000CAA0BA90AA8091202907009AF0CAE0BD9
:10086900AD0AAC0922AF0CAE0BAD0AAC0912007887
:10087900FBAF10AE0FAD0EAC0D120078FFBF010833
:10088900E4FFFE7D807C3F22EF64046022EB640478
:10089900601DBB0127E4FFFEFDFCAB10AA0FA90EEA
:1008A900A80D12029060084006E4FFFEFDFC2274C8
:1008B900FFF510F50FF50EF50D020957E4F511F5E1
:1008C90012FFFEFDFCAB0CAA0BA90AA809120290A3
:1008D900504BAF10AE0FAD0EAC0D1200418E118F03
:1008E90012AC11AD12EC120008C8ECC8C9EDC9CAA6
:1008F900EECACBEFCBAF10AE0FAD0EAC0D1200951B
:10090900E4FBFAF9F812029070A5AF0CAE0BAD0A30
:10091900AC091202FD8F0C8E0B8D0A8C09AF0CAE3F
:100929000BAD0AAC09120748AB10AA0FA90EA80D06
:1009390012018A1209988F108E0F8D0E8C0DE512F7
:1009490030E00B1202FD8F108E0F8D0E8C0DAF1043
:07095900AE0FAD0EAC0D2244
:10007800ED33EC33601004700FED547F700574029B
:0A00880092E0227404220422E42214
:10009200020343E86480F8E933E83360110460F056
:1000A200ED33EC337009E8FCE9FDEAFEEBFF2204D4
:1000B20060DED3EB9FEA9EE99DE8C2E78CF0C2F7CF
:1000C20095F0400CE8CCF8E9CDF9EACEFAEBCFFB9B
:1000D20012030E85D0F05804700320D5B3E80470E3
:1000E200075002B2D502034D92D5EC0460F7E4CC7E
:1000F200C0E0C398F8603B94186008400DD0E0FB64
:10010200020325E4FBFAC9FC8028E830E406E4C9CE
:10011200FBE4CAFCE830E305E4C9CACBFCE85407B7
:100122006010F8C3E913F9EA13FAEB13FBEC13FCC2
:10013200D8F130F52FC3E49CFCEF9BFFEE9AFEED65
:1001420099FDD0E0FBEF4E4D4C701222DB0302030F
:100152004AEC2CFCEF33FFEE33FEED33FDED30E7DE
:10016200EB020325EF2BFFEE3AFEED39FDD0E0FB6B
:1001720050130BBB000302034DED13FDEE13FEEF14
:0801820013FFEC13FC0203253E
:10018A00EC4D6011E8497017ED33EC3304600DE46F
:10019A00FCFFFEFD22E933E8330470F80203431240
:1001AA00030E58046009E4CC248150062850090241
:1001BA00034D28400302034AC0E0EB4A7044B98069
:1001CA0006D0E0FB020339EF4E701CBD8008EBFF3E
:1001DA00EAFEE9FD80EBE98DF0A4FEE5F002027388
:1001EA00E9CDF9EAFEEBFFEF89F0A4FCE5F0CE8950
:1001FA00F0A42EFFE435F0CD89F0A42DFEE435F00D
:10020A008067EF4E7005BD80D780C3EF8BF0A4AC3A
:10021A00F0EE8BF0A42CFCE435F0F8EF8AF0A42C75
:10022A00E5F038FCE433CB8DF0A42CFCE5F03BF888
:10023A00EE8AF0A42CFCE5F038F8E433CF89F0A478
:10024A002CFCE5F038CF3400CE89F0A42FFFE5F07E
:10025A003EFEE433C98DF0A42EFEE5F039CD8AF0D6
:10026A00A42FFFE5F03EFEE43DFD33D0E0FB50074E
:10027A000BBB000F02034DEC2CFCEF33FFEE33FEF9
:06028A00ED33FD02032527
:1002900074F8CC6480CCC86480C8F582046043C321
:1002A000EB9FF5F0EA9E42F0E99D42F0E89C45F0B4
:1002B00060305018E5825FFFE582F42B5582FB50D9
:1002C000210ABA001D09B90019088016E5825BFBF6
:1002D000E582F42F5582FF50090EBE00050DBD00CA
:1002E000010CC3EB9FF5F0EA9E42F0E99D42F0E875
:0D02F0009C45F06007CC4820E701B3EC22EC
:1002FD00ED33EC33600A047003BD8004ECB2E7FC0F
:01030D0022CD
:1009600033DA929E35B16011377FE5FE39218489F3
:100970003AAEC3FF3C1D955B3D6358473E75FDF0A5
:100980003F3172183F800000C2D502034D0203437D
:10099000BD80FA50F302034AED33EC330460F17B7F
:1009A0003B7AAA79B8783F12018AED33EC3392D5BD
:1009B000247B5011A2D570DB500BED4480240450F1
:1009C00004A2D580CEEFFBEEFAEDF9ECF81200416F
:1009D000EFF582F404FC12000D120099C082900918
:1009E000607409120407ED33CC33D0F092D525F0B2
:0A09F000A2D57001C313CC13FD2241
:100714003E9248DA3ECCCCCD3F2AAAAB4000000042
:100724003F8000003F9837F03FB504F33FD744FCC7
:100734003E3172173EB172173F0515913EDE5BD90B
:10074400D2008002C200EDD2E7F8CD33EC3304705E
:100754000BBD800592D502034D02034340FBD31425
:1007640060F2F5F07C3FEE7A00C39496C8948B4017
:10077400230AC89469C8941A401A0AC89468C89489
:100784001F40110AC8945AC89425400805F07A00FD
:10079400CDC2E7CDC0F08C138D148E158F16EA23CD
:1007A40023C0E02424F582E43407F58312046312A1
:1007B4000099ECC0E0EDC0E0EEC0E0EFC0E0120450
:1007C40053A813A914AA15AB16120095D0E0FBD0B8
:1007D400E0FAD0E0F9D0E0B2E7F812035B8C138DB5
:1007E400148E158F1690071474031203F8A813A916
:1007F40014AA15AB1612018AD0E0600F2430F582DA
:10080400E43407F5831204631200998C138D148E5B
:10081400158F16D0E0C3947FFDE49400FC12000809
:100824007B187A727931783F12018AA813A914AA25
:1008340015AB1612009930000B7BD97A5B79DE7800
:050844003E12018A22B2
:10030E00E9D2E7C933E833F892D5EDD2E7CD33EC35
:07031E0033FC5002B2D522AE
:10032500EC30E7100FBF000C0EBE00080DBD000439
:100335000BEB6014A2D5EB13FCED92E7FD2274FFE5
:10034500FCFDFEFF22E480F8A2D574FF13FC7D803E
:03035500E480EF52
:1003580002034DEC5D046005E85904700302034391
:1003680012030E580460F6EC4860F2EC7004FDFECF
:10037800FF22C860DB2481C85009C3986002500678
:1003880002034A9850CAF582E9294B4A7005AB82A4
:1003980002033975F0007C1A7880C3EF9BEE9AED62
:1003A80099400DC3EF9BFFEE9AFEED99FDE842F0F0
:1003B800DC23ACF0D0E0FFD0E0FED0E0FDAB822043
:1003C800E7101BEB60BAEC2CFCEF33FFEE33FEEDCD
:1003D80033FD020325E803F830E705C0F075F000A7
:1003E800EF2FFFEE33FEED33FD40B830E7C280AAB1
:1003F800C0E0EFFBEEFAEDF9ECF812018AD0E0F577
:10040800F0EFFBEEFAEDF9ECF8120453A3A3A3A363
:10041800E8C0E0E9C0E0EAC0E0EBC0E0C0F01201EB
:100428008A120463A3A3A3A3120099D0F0D0E0FB1F
:0D043800D0E0FAD0E0F9D0E0F8D5F0D42201
:03000000020AB43D
:0C0AB400787FE4F6D8FD75812002047301
:0E044500C3E49FFFE49EFEE49DFDE49CFC22C8
:10045300E493FC740193FD740293FE740393FF22EF
:10046300E493F8740193F9740293FA740393FB22EF
:00000001FF
