:10076500C290C291C292E4F508AC08EC12000D8F5C
:10077500108E0F8D0E8C0D7F007E007D007C40124B
:1007850005B41200411207F57F0A7E001207D50550
:1007950008C3E5086480948840CF750806C3E5085A
:1007A5006480948040C0AC08EC12000D8F108E0F51
:1007B5008D0E8C0D7F007E007D007C401205B412ED
:1007C50000411207F57F0A7E001207D5150880CD76
:0C081400EF24FF9292D290C292C2902278
:0207F500AE074D
:1007F700E4FDEEA805088002C313D8FCA2E0E433A9
:0C080700FF1208140DBD08EAD291C29146
:0108130022C2
:1007D500E4FDFCC3ED9FEC9E5015E4FBFA0BBB005A
:0F07E500010ABA04F8BBFBF50DBD00010C80E45E
:0107F40022E2
:1000030075F020800E75F010800575F0087D007E78
:10001300007F003392D530D503120451EC334010E6
:10002300EF33FFEE33FEED33FDEC33FCD5F0ED2281
:0E003300E5F0247EA2D513CC92E7CDCEFF22BD
:10004100EDD2E7CD33EC3392D524814006E4FFFEB7
:10005100FDFC22FCE4CFCECDCC24E0501174FF8016
:10006100EDC3CC13CCCD13CDCE13CECF13CF0470B3
:07007100F030D5DE0204515E
:1005B4008F0C8E0B8D0A8C09E4FFFE7D807C3FAB93
:1005C4000CAA0BA90AA8091202907009AF0CAE0B71
:1005D400AD0AAC0922AF0CAE0BAD0AAC091200781F
:1005E400FBAF10AE0FAD0EAC0D120078FFBF0108CB
:1005F400E4FFFE7D807C3F22EF64046022EB640410
:10060400601DBB0127E4FFFEFDFCAB10AA0FA90E81
:10061400A80D12029060084006E4FFFEFDFC22745F
:10062400FFF510F50FF50EF50D0206C2E4F511F510
:1006340012FFFEFDFCAB0CAA0BA90AA8091202903A
:10064400504BAF10AE0FAD0EAC0D1200418E118F9A
:1006540012AC11AD12EC120008C8ECC8C9EDC9CA3D
:10066400EECACBEFCBAF10AE0FAD0EAC0D120095B2
:10067400E4FBFAF9F812029070A5AF0CAE0BAD0AC8
:10068400AC091203098F0C8E0B8D0A8C09AF0CAECA
:100694000BAD0AAC091204B3AB10AA0FA90EA80D36
:1006A40012018A1207038F108E0F8D0E8C0DE51226
:1006B40030E00B1203098F108E0F8D0E8C0DAF10CE
:0706C400AE0FAD0EAC0D22DC
:10007800ED33EC33601004700FED547F700574029B
:0A00880092E0227404220422E42214
:1000920002034FE86480F8E933E83360110460F04A
:1000A200ED33EC337009E8FCE9FDEAFEEBFF2204D4
:1000B20060DED3EB9FEA9EE99DE8C2E78CF0C2F7CF
:1000C20095F0400CE8CCF8E9CDF9EACEFAEBCFFB9B
:1000D20012031A85D0F05804700320D5B3E80470D7
:1000E200075002B2D502035992D5EC0460F7E4CC72
:1000F200C0E0C398F8603B94186008400DD0E0FB64
:10010200020331E4FBFAC9FC8028E830E406E4C9C2
:10011200FBE4CAFCE830E305E4C9CACBFCE85407B7
:100122006010F8C3E913F9EA13FAEB13FBEC13FCC2
:10013200D8F130F52FC3E49CFCEF9BFFEE9AFEED65
:1001420099FDD0E0FBEF4E4D4C701222DB0302030F
:1001520056EC2CFCEF33FFEE33FEED33FDED30E7D2
:10016200EB020331EF2BFFEE3AFEED39FDD0E0FB5F
:1001720050130BBB0003020359ED13FDEE13FEEF08
:0801820013FFEC13FC02033132
:10018A00EC4D6011E8497017ED33EC3304600DE46F
:10019A00FCFFFEFD22E933E8330470F802034F1234
:1001AA00031A58046009E4CC248150062850090235
:1001BA000359284003020356C0E0EB4A7044B98051
:1001CA0006D0E0FB020345EF4E701CBD8008EBFF32
:1001DA00EAFEE9FD80EBE98DF0A4FEE5F002027388
:1001EA00E9CDF9EAFEEBFFEF89F0A4FCE5F0CE8950
:1001FA00F0A42EFFE435F0CD89F0A42DFEE435F00D
:10020A008067EF4E7005BD80D780C3EF8BF0A4AC3A
:10021A00F0EE8BF0A42CFCE435F0F8EF8AF0A42C75
:10022A00E5F038FCE433CB8DF0A42CFCE5F03BF888
:10023A00EE8AF0A42CFCE5F038F8E433CF89F0A478
:10024A002CFCE5F038CF3400CE89F0A42FFFE5F07E
:10025A003EFEE433C98DF0A42EFEE5F039CD8AF0D6
:10026A00A42FFFE5F03EFEE43DFD33D0E0FB50074E
:10027A000BBB000F020359EC2CFCEF33FFEE33FEED
:06028A00ED33FD0203311B
:1002900074F8CC6480CCC86480C8F58204604FC315
:1002A000EB9FF5F0EA9E42F0E99D42F0E89C45F0B4
:1002B000603C501DE5825FFFE582D313CB5BCBF43E
:1002C0002B5582FB50280ABA002409B90020088067
:1002D0001DE5825BFBE582D313CF5FCFF4C3132F01
:1002E0005582FF50090EBE00050DBD00010CC3EB89
:1002F0009FF5F0EA9E42F0E99D42F0E89C45F060EF
:0903000007CC4820E701B3EC2210
:10030900ED33EC33600A047003BD8004ECB2E7FC02
:0103190022C1
:1006CB0033DA929E35B16011377FE5FE392184898B
:1006DB003AAEC3FF3C1D955B3D6358473E75FDF03D
:1006EB003F3172183F800000C2D502035902034FFD
:1006FB00BD80FA50F3020356ED33EC330460F17B0B
:10070B003B7AAA79B8783F12018AED33EC3392D554
:10071B00247B5011A2D570DB500BED448024045088
:10072B0004A2D580CEEFFBEEFAEDF9ECF812004106
:10073B00EFF582F404FC12000D120099C0829006B2
:10074B00CB7409120413ED33CC33D0F092D525F0D2
:0A075B00A2D57001C313CC13FD22D8
:10047F003E9248DA3ECCCCCD3F2AAAAB40000000DA
:10048F003F8000003F9837F03FB504F33FD744FC5F
:10049F003E3172173EB172173F0515913EDE5BD9A3
:1004AF00D2008002C200EDD2E7F8CD33EC330470F6
:1004BF000BBD800592D502035902034F40FBD314A5
:1004CF0060F2F5F07C3FEE7A00C39496C8948B40AF
:1004DF00230AC89469C8941A401A0AC89468C89421
:1004EF001F40110AC8945AC89425400805F07A0095
:1004FF00CDC2E7CDC0F08C138D148E158F16EA2365
:10050F0023C0E0248FF582E43404F58312046F12C4
:10051F000099ECC0E0EDC0E0EEC0E0EFC0E01204E7
:10052F005FA813A914AA15AB16120095D0E0FBD043
:10053F00E0FAD0E0F9D0E0B2E7F81203678C138D40
:10054F00148E158F1690047F7403120404A813A938
:10055F0014AA15AB1612018AD0E0600F249BF58206
:10056F00E43404F58312046F1200998C138D148EEA
:10057F00158F16D0E0C3947FFDE49400FC120008A1
:10058F007B187A727931783F12018AA813A914AABD
:10059F0015AB1612009930000B7BD97A5B79DE7898
:0505AF003E12018A224A
:10031A00E9D2E7C933E833F892D5EDD2E7CD33EC29
:07032A0033FC5002B2D522A2
:10033100EC30E7100FBF000C0EBE00080DBD00042D
:100341000BEB6014A2D5EB13FCED92E7FD2274FFD9
:10035100FCFDFEFF22E480F8A2D574FF13FC7D8032
:03036100E480EF46
:10036400020359EC5D046005E85904700302034F6D
:1003740012031A580460F6EC4860F2EC7004FDFEB7
:10038400FF22C860DB2481C85009C398600250066C
:100394000203569850CAF582E9294B4A7005AB828C
:1003A40002034575F0007C1A7880C3EF9BEE9AED4A
:1003B40099400DC3EF9BFFEE9AFEED99FDE842F0E4
:1003C400DC23ACF0D0E0FFD0E0FED0E0FDAB822037
:1003D400E7101BEB60BAEC2CFCEF33FFEE33FEEDC1
:1003E40033FD020331E803F830E705C0F075F0008F
:1003F400EF2FFFEE33FEED33FD40B830E7C280AAA5
:10040400C0E0EFFBEEFAEDF9ECF812018AD0E0F56A
:10041400F0EFFBEEFAEDF9ECF812045FA3A3A3A34B
:10042400E8C0E0E9C0E0EAC0E0EBC0E0C0F01201DF
:100434008A12046FA3A3A3A3120099D0F0D0E0FB07
:0D044400D0E0FAD0E0F9D0E0F8D5F0D422F5
:03000000020820D3
:0C082000787FE4F6D8FD758120020765A2
:0E045100C3E49FFFE49EFEE49DFDE49CFC22BC
:10045F00E493FC740193FD740293FE740393FF22E3
:10046F00E493F8740193F9740293FA740393FB22E3
:00000001FF
